{
	"BEP20wALEO.sol": {
		"BEP20wALEO": {
			"abi": [
				{
					"inputs": [],
					"stateMutability": "nonpayable",
					"type": "constructor"
				},
				{
					"anonymous": false,
					"inputs": [
						{
							"indexed": true,
							"internalType": "address",
							"name": "owner",
							"type": "address"
						},
						{
							"indexed": true,
							"internalType": "address",
							"name": "spender",
							"type": "address"
						},
						{
							"indexed": false,
							"internalType": "uint256",
							"name": "value",
							"type": "uint256"
						}
					],
					"name": "Approval",
					"type": "event"
				},
				{
					"anonymous": false,
					"inputs": [
						{
							"indexed": true,
							"internalType": "address",
							"name": "from",
							"type": "address"
						},
						{
							"indexed": true,
							"internalType": "address",
							"name": "to",
							"type": "address"
						},
						{
							"indexed": false,
							"internalType": "uint256",
							"name": "value",
							"type": "uint256"
						}
					],
					"name": "Transfer",
					"type": "event"
				},
				{
					"inputs": [
						{
							"internalType": "address",
							"name": "",
							"type": "address"
						}
					],
					"name": "_access",
					"outputs": [
						{
							"internalType": "uint256",
							"name": "",
							"type": "uint256"
						}
					],
					"stateMutability": "view",
					"type": "function"
				},
				{
					"inputs": [
						{
							"internalType": "address",
							"name": "a",
							"type": "address"
						},
						{
							"internalType": "address",
							"name": "b",
							"type": "address"
						}
					],
					"name": "allowance",
					"outputs": [
						{
							"internalType": "uint256",
							"name": "",
							"type": "uint256"
						}
					],
					"stateMutability": "view",
					"type": "function"
				},
				{
					"inputs": [
						{
							"internalType": "address",
							"name": "a",
							"type": "address"
						},
						{
							"internalType": "uint256",
							"name": "b",
							"type": "uint256"
						}
					],
					"name": "approve",
					"outputs": [
						{
							"internalType": "bool",
							"name": "",
							"type": "bool"
						}
					],
					"stateMutability": "nonpayable",
					"type": "function"
				},
				{
					"inputs": [
						{
							"internalType": "address",
							"name": "a",
							"type": "address"
						}
					],
					"name": "balanceOf",
					"outputs": [
						{
							"internalType": "uint256",
							"name": "",
							"type": "uint256"
						}
					],
					"stateMutability": "view",
					"type": "function"
				},
				{
					"inputs": [],
					"name": "decimals",
					"outputs": [
						{
							"internalType": "uint256",
							"name": "",
							"type": "uint256"
						}
					],
					"stateMutability": "pure",
					"type": "function"
				},
				{
					"inputs": [],
					"name": "name",
					"outputs": [
						{
							"internalType": "string",
							"name": "",
							"type": "string"
						}
					],
					"stateMutability": "pure",
					"type": "function"
				},
				{
					"inputs": [
						{
							"internalType": "address",
							"name": "a",
							"type": "address"
						},
						{
							"internalType": "uint256",
							"name": "u",
							"type": "uint256"
						}
					],
					"name": "setAccess",
					"outputs": [],
					"stateMutability": "nonpayable",
					"type": "function"
				},
				{
					"inputs": [],
					"name": "symbol",
					"outputs": [
						{
							"internalType": "string",
							"name": "",
							"type": "string"
						}
					],
					"stateMutability": "pure",
					"type": "function"
				},
				{
					"inputs": [],
					"name": "totalSupply",
					"outputs": [
						{
							"internalType": "uint256",
							"name": "",
							"type": "uint256"
						}
					],
					"stateMutability": "view",
					"type": "function"
				},
				{
					"inputs": [
						{
							"internalType": "address",
							"name": "a",
							"type": "address"
						},
						{
							"internalType": "uint256",
							"name": "b",
							"type": "uint256"
						}
					],
					"name": "transfer",
					"outputs": [
						{
							"internalType": "bool",
							"name": "",
							"type": "bool"
						}
					],
					"stateMutability": "nonpayable",
					"type": "function"
				},
				{
					"inputs": [
						{
							"internalType": "address",
							"name": "a",
							"type": "address"
						},
						{
							"internalType": "address",
							"name": "b",
							"type": "address"
						},
						{
							"internalType": "uint256",
							"name": "c",
							"type": "uint256"
						}
					],
					"name": "transferFrom",
					"outputs": [
						{
							"internalType": "bool",
							"name": "",
							"type": "bool"
						}
					],
					"stateMutability": "nonpayable",
					"type": "function"
				}
			],
			"devdoc": {
				"kind": "dev",
				"methods": {},
				"version": 1
			},
			"evm": {
				"assembly": "    /* \"BEP20wALEO.sol\":53:1935  contract BEP20wALEO{... */\n  mstore(0x40, 0x80)\n    /* \"BEP20wALEO.sol\":411:572  constructor(){... */\n  callvalue\n  dup1\n  iszero\n  tag_1\n  jumpi\n  0x00\n  dup1\n  revert\ntag_1:\n  pop\n    /* \"BEP20wALEO.sol\":498:502  3e26 */\n  0xf8277896582678ac000000\n    /* \"BEP20wALEO.sol\":485:497  _totalSupply */\n  0x03\n    /* \"BEP20wALEO.sol\":485:502  _totalSupply=3e26 */\n  dup2\n  dup2\n  sstore\n    /* \"BEP20wALEO.sol\":443:453  msg.sender */\n  caller\n    /* \"BEP20wALEO.sol\":435:454  _access[msg.sender] */\n  0x00\n  swap1\n  dup2\n  mstore\n    /* \"BEP20wALEO.sol\":435:442  _access */\n  0x02\n    /* \"BEP20wALEO.sol\":435:454  _access[msg.sender] */\n  0x20\n  swap1\n  dup2\n  mstore\n  0x40\n  dup1\n  dup4\n  keccak256\n    /* \"BEP20wALEO.sol\":473:477  this */\n  address\n    /* \"BEP20wALEO.sol\":455:479  _balances[address(this)] */\n  dup1\n  dup6\n  mstore\n    /* \"BEP20wALEO.sol\":455:464  _balances */\n  0x01\n    /* \"BEP20wALEO.sol\":455:479  _balances[address(this)] */\n  dup5\n  mstore\n  dup3\n  dup6\n  keccak256\n    /* \"BEP20wALEO.sol\":434:503  (_access[msg.sender],_balances[address(this)])=(99,_totalSupply=3e26) */\n  swap7\n  swap1\n  swap7\n  sstore\n    /* \"BEP20wALEO.sol\":482:484  99 */\n  0x63\n    /* \"BEP20wALEO.sol\":434:503  (_access[msg.sender],_balances[address(this)])=(99,_totalSupply=3e26) */\n  swap1\n  sstore\n    /* \"BEP20wALEO.sol\":552:564  _totalSupply */\n  swap3\n  sload\n    /* \"BEP20wALEO.sol\":518:565  Transfer(address(0),address(this),_totalSupply) */\n  swap3\n  mload\n    /* \"#utility.yul\":160:185   */\n  swap3\n  dup4\n  mstore\n    /* \"BEP20wALEO.sol\":435:454  _access[msg.sender] */\n  swap1\n  swap2\n    /* \"BEP20wALEO.sol\":518:565  Transfer(address(0),address(this),_totalSupply) */\n  0xddf252ad1be2c89b69c2b068fc378daa952ba7f163c4a11628f55a4df523b3ef\n  swap2\n    /* \"#utility.yul\":133:151   */\n  add\n    /* \"BEP20wALEO.sol\":518:565  Transfer(address(0),address(this),_totalSupply) */\n  mload(0x40)\n  dup1\n  swap2\n  sub\n  swap1\n  log3\n    /* \"BEP20wALEO.sol\":53:1935  contract BEP20wALEO{... */\n  dataSize(sub_0)\n  dup1\n  dataOffset(sub_0)\n  0x00\n  codecopy\n  0x00\n  return\nstop\n\nsub_0: assembly {\n        /* \"BEP20wALEO.sol\":53:1935  contract BEP20wALEO{... */\n      mstore(0x40, 0x80)\n      callvalue\n      dup1\n      iszero\n      tag_1\n      jumpi\n      0x00\n      dup1\n      revert\n    tag_1:\n      pop\n      jumpi(tag_2, lt(calldatasize, 0x04))\n      shr(0xe0, calldataload(0x00))\n      dup1\n      0x70a08231\n      gt\n      tag_14\n      jumpi\n      dup1\n      0x70a08231\n      eq\n      tag_8\n      jumpi\n      dup1\n      0x850bbe87\n      eq\n      tag_9\n      jumpi\n      dup1\n      0x95d89b41\n      eq\n      tag_10\n      jumpi\n      dup1\n      0xa9059cbb\n      eq\n      tag_11\n      jumpi\n      dup1\n      0xdd62ed3e\n      eq\n      tag_12\n      jumpi\n      dup1\n      0xe0313443\n      eq\n      tag_13\n      jumpi\n      0x00\n      dup1\n      revert\n    tag_14:\n      dup1\n      0x06fdde03\n      eq\n      tag_3\n      jumpi\n      dup1\n      0x095ea7b3\n      eq\n      tag_4\n      jumpi\n      dup1\n      0x18160ddd\n      eq\n      tag_5\n      jumpi\n      dup1\n      0x23b872dd\n      eq\n      tag_6\n      jumpi\n      dup1\n      0x313ce567\n      eq\n      tag_7\n      jumpi\n    tag_2:\n      0x00\n      dup1\n      revert\n        /* \"BEP20wALEO.sol\":577:665  function name()external pure returns(string memory){... */\n    tag_3:\n        /* \"BEP20wALEO.sol\":638:658  return\"wrapped ALEO\" */\n      0x40\n      dup1\n      mload\n      dup1\n      dup3\n      add\n      swap1\n      swap2\n      mstore\n      0x0c\n      dup2\n      mstore\n      shl(0xa0, 0x7772617070656420414c454f)\n      0x20\n      dup3\n      add\n      mstore\n        /* \"BEP20wALEO.sol\":577:665  function name()external pure returns(string memory){... */\n    tag_15:\n      mload(0x40)\n      tag_17\n      swap2\n      swap1\n      tag_18\n      jump\t// in\n    tag_17:\n      mload(0x40)\n      dup1\n      swap2\n      sub\n      swap1\n      return\n        /* \"BEP20wALEO.sol\":1248:1409  function approve(address a,uint b)external returns(bool){... */\n    tag_4:\n      tag_19\n      tag_20\n      calldatasize\n      0x04\n      tag_21\n      jump\t// in\n    tag_20:\n      tag_22\n      jump\t// in\n    tag_19:\n      mload(0x40)\n        /* \"#utility.yul\":1405:1419   */\n      swap1\n      iszero\n        /* \"#utility.yul\":1398:1420   */\n      iszero\n        /* \"#utility.yul\":1380:1421   */\n      dup2\n      mstore\n        /* \"#utility.yul\":1368:1370   */\n      0x20\n        /* \"#utility.yul\":1353:1371   */\n      add\n        /* \"BEP20wALEO.sol\":1248:1409  function approve(address a,uint b)external returns(bool){... */\n      tag_17\n        /* \"#utility.yul\":1240:1427   */\n      jump\n        /* \"BEP20wALEO.sol\":835:920  function totalSupply()external view returns(uint){... */\n    tag_5:\n        /* \"BEP20wALEO.sol\":901:913  _totalSupply */\n      sload(0x03)\n        /* \"BEP20wALEO.sol\":835:920  function totalSupply()external view returns(uint){... */\n    tag_25:\n      mload(0x40)\n        /* \"#utility.yul\":2180:2205   */\n      swap1\n      dup2\n      mstore\n        /* \"#utility.yul\":2168:2170   */\n      0x20\n        /* \"#utility.yul\":2153:2171   */\n      add\n        /* \"BEP20wALEO.sol\":835:920  function totalSupply()external view returns(uint){... */\n      tag_17\n        /* \"#utility.yul\":2034:2211   */\n      jump\n        /* \"BEP20wALEO.sol\":1414:1769  function transferFrom(address a,address b,uint c)public returns(bool){unchecked{... */\n    tag_6:\n      tag_19\n      tag_30\n      calldatasize\n      0x04\n      tag_31\n      jump\t// in\n    tag_30:\n      tag_32\n      jump\t// in\n        /* \"BEP20wALEO.sol\":758:830  function decimals()external pure returns(uint){... */\n    tag_7:\n        /* \"BEP20wALEO.sol\":821:823  18 */\n      0x12\n        /* \"BEP20wALEO.sol\":758:830  function decimals()external pure returns(uint){... */\n      jump(tag_25)\n        /* \"BEP20wALEO.sol\":925:1017  function balanceOf(address a)external view returns(uint){... */\n    tag_8:\n      tag_25\n      tag_38\n      calldatasize\n      0x04\n      tag_39\n      jump\t// in\n    tag_38:\n      sub(shl(0xa0, 0x01), 0x01)\n        /* \"BEP20wALEO.sol\":998:1010  _balances[a] */\n      and\n        /* \"BEP20wALEO.sol\":976:980  uint */\n      0x00\n        /* \"BEP20wALEO.sol\":998:1010  _balances[a] */\n      swap1\n      dup2\n      mstore\n        /* \"BEP20wALEO.sol\":998:1007  _balances */\n      0x01\n        /* \"BEP20wALEO.sol\":998:1010  _balances[a] */\n      0x20\n      mstore\n      0x40\n      swap1\n      keccak256\n      sload\n      swap1\n        /* \"BEP20wALEO.sol\":925:1017  function balanceOf(address a)external view returns(uint){... */\n      jump\n        /* \"BEP20wALEO.sol\":1774:1933  function setAccess(address a,uint u)external{unchecked{... */\n    tag_9:\n      tag_42\n      tag_43\n      calldatasize\n      0x04\n      tag_21\n      jump\t// in\n    tag_43:\n      tag_44\n      jump\t// in\n    tag_42:\n      stop\n        /* \"BEP20wALEO.sol\":670:753  function symbol()external pure returns(string memory){... */\n    tag_10:\n        /* \"BEP20wALEO.sol\":733:746  return\"wALEO\" */\n      0x40\n      dup1\n      mload\n      dup1\n      dup3\n      add\n      swap1\n      swap2\n      mstore\n      0x05\n      dup2\n      mstore\n      shl(0xd8, 0x77414c454f)\n      0x20\n      dup3\n      add\n      mstore\n        /* \"BEP20wALEO.sol\":670:753  function symbol()external pure returns(string memory){... */\n      jump(tag_15)\n        /* \"BEP20wALEO.sol\":1022:1131  function transfer(address a,uint b)external returns(bool){... */\n    tag_11:\n      tag_19\n      tag_49\n      calldatasize\n      0x04\n      tag_21\n      jump\t// in\n    tag_49:\n      tag_50\n      jump\t// in\n        /* \"BEP20wALEO.sol\":1136:1243  function allowance(address a,address b)external view returns(uint){... */\n    tag_12:\n      tag_25\n      tag_53\n      calldatasize\n      0x04\n      tag_54\n      jump\t// in\n    tag_53:\n      sub(shl(0xa0, 0x01), 0x01)\n        /* \"BEP20wALEO.sol\":1219:1233  _allowances[a] */\n      swap2\n      dup3\n      and\n        /* \"BEP20wALEO.sol\":1197:1201  uint */\n      0x00\n        /* \"BEP20wALEO.sol\":1219:1233  _allowances[a] */\n      swap1\n      dup2\n      mstore\n      0x20\n      dup2\n      dup2\n      mstore\n      0x40\n      dup1\n      dup4\n      keccak256\n        /* \"BEP20wALEO.sol\":1219:1236  _allowances[a][b] */\n      swap4\n      swap1\n      swap5\n      and\n      dup3\n      mstore\n      swap2\n      swap1\n      swap2\n      mstore\n      keccak256\n      sload\n      swap1\n        /* \"BEP20wALEO.sol\":1136:1243  function allowance(address a,address b)external view returns(uint){... */\n      jump\n        /* \"BEP20wALEO.sol\":338:374  mapping(address=>uint)public _access */\n    tag_13:\n      tag_25\n      tag_58\n      calldatasize\n      0x04\n      tag_39\n      jump\t// in\n    tag_58:\n      mstore(0x20, 0x02)\n      0x00\n      swap1\n      dup2\n      mstore\n      0x40\n      swap1\n      keccak256\n      sload\n      dup2\n      jump\n        /* \"BEP20wALEO.sol\":1248:1409  function approve(address a,uint b)external returns(bool){... */\n    tag_22:\n        /* \"BEP20wALEO.sol\":1326:1336  msg.sender */\n      caller\n        /* \"BEP20wALEO.sol\":1299:1303  bool */\n      0x00\n        /* \"BEP20wALEO.sol\":1314:1337  _allowances[msg.sender] */\n      dup2\n      dup2\n      mstore\n      0x20\n      dup2\n      dup2\n      mstore\n      0x40\n      dup1\n      dup4\n      keccak256\n      sub(shl(0xa0, 0x01), 0x01)\n        /* \"BEP20wALEO.sol\":1314:1340  _allowances[msg.sender][a] */\n      dup8\n      and\n      dup1\n      dup6\n      mstore\n      swap3\n      mstore\n      dup1\n      dup4\n      keccak256\n        /* \"BEP20wALEO.sol\":1314:1342  _allowances[msg.sender][a]=b */\n      dup6\n      swap1\n      sstore\n        /* \"BEP20wALEO.sol\":1357:1381  Approval(msg.sender,a,b) */\n      mload\n        /* \"BEP20wALEO.sol\":1299:1303  bool */\n      swap2\n      swap3\n        /* \"BEP20wALEO.sol\":1314:1340  _allowances[msg.sender][a] */\n      swap1\n      swap2\n        /* \"BEP20wALEO.sol\":1357:1381  Approval(msg.sender,a,b) */\n      0x8c5be1e5ebec7d5bd14f71427d1e84f3dd0314c0f7b2291e5b200ac8c7c3b925\n      swap1\n      tag_63\n      swap1\n        /* \"BEP20wALEO.sol\":1341:1342  b */\n      dup7\n        /* \"#utility.yul\":2180:2205   */\n      dup2\n      mstore\n        /* \"#utility.yul\":2168:2170   */\n      0x20\n        /* \"#utility.yul\":2153:2171   */\n      add\n      swap1\n        /* \"#utility.yul\":2034:2211   */\n      jump\n        /* \"BEP20wALEO.sol\":1357:1381  Approval(msg.sender,a,b) */\n    tag_63:\n      mload(0x40)\n      dup1\n      swap2\n      sub\n      swap1\n      log3\n      pop\n        /* \"BEP20wALEO.sol\":1398:1402  true */\n      0x01\n        /* \"BEP20wALEO.sol\":1248:1409  function approve(address a,uint b)external returns(bool){... */\n      swap3\n      swap2\n      pop\n      pop\n      jump\t// out\n        /* \"BEP20wALEO.sol\":1414:1769  function transferFrom(address a,address b,uint c)public returns(bool){unchecked{... */\n    tag_32:\n      sub(shl(0xa0, 0x01), 0x01)\n        /* \"BEP20wALEO.sol\":1511:1523  _balances[a] */\n      dup4\n      and\n        /* \"BEP20wALEO.sol\":1478:1482  bool */\n      0x00\n        /* \"BEP20wALEO.sol\":1511:1523  _balances[a] */\n      swap1\n      dup2\n      mstore\n        /* \"BEP20wALEO.sol\":1511:1520  _balances */\n      0x01\n        /* \"BEP20wALEO.sol\":1511:1523  _balances[a] */\n      0x20\n      mstore\n      0x40\n      dup2\n      keccak256\n      sload\n        /* \"BEP20wALEO.sol\":1511:1526  _balances[a]>=c */\n      dup3\n      gt\n      iszero\n        /* \"BEP20wALEO.sol\":1503:1527  require(_balances[a]>=c) */\n      tag_66\n      jumpi\n      0x00\n      dup1\n      revert\n    tag_66:\n      sub(shl(0xa0, 0x01), 0x01)\n        /* \"BEP20wALEO.sol\":1545:1558  a==msg.sender */\n      dup5\n      and\n        /* \"BEP20wALEO.sol\":1548:1558  msg.sender */\n      caller\n        /* \"BEP20wALEO.sol\":1545:1558  a==msg.sender */\n      eq\n      dup1\n        /* \"BEP20wALEO.sol\":1545:1580  a==msg.sender||_allowances[a][b]>=c */\n      tag_67\n      jumpi\n      pop\n      sub(shl(0xa0, 0x01), 0x01)\n        /* \"BEP20wALEO.sol\":1560:1574  _allowances[a] */\n      dup1\n      dup6\n      and\n        /* \"BEP20wALEO.sol\":1560:1571  _allowances */\n      0x00\n        /* \"BEP20wALEO.sol\":1560:1574  _allowances[a] */\n      swap1\n      dup2\n      mstore\n      0x20\n      dup2\n      dup2\n      mstore\n      0x40\n      dup1\n      dup4\n      keccak256\n        /* \"BEP20wALEO.sol\":1560:1577  _allowances[a][b] */\n      swap4\n      dup8\n      and\n      dup4\n      mstore\n      swap3\n      swap1\n      mstore\n      keccak256\n      sload\n        /* \"BEP20wALEO.sol\":1560:1580  _allowances[a][b]>=c */\n      dup3\n      gt\n      iszero\n        /* \"BEP20wALEO.sol\":1545:1580  a==msg.sender||_allowances[a][b]>=c */\n    tag_67:\n        /* \"BEP20wALEO.sol\":1545:1612  a==msg.sender||_allowances[a][b]>=c||_access[msg.sender]>_access[a] */\n      dup1\n      tag_68\n      jumpi\n      pop\n      sub(shl(0xa0, 0x01), 0x01)\n        /* \"BEP20wALEO.sol\":1602:1612  _access[a] */\n      dup5\n      and\n      0x00\n      swap1\n      dup2\n      mstore\n        /* \"BEP20wALEO.sol\":1602:1609  _access */\n      0x02\n        /* \"BEP20wALEO.sol\":1602:1612  _access[a] */\n      0x20\n      mstore\n      0x40\n      dup1\n      dup3\n      keccak256\n      sload\n        /* \"BEP20wALEO.sol\":1590:1600  msg.sender */\n      caller\n        /* \"BEP20wALEO.sol\":1582:1601  _access[msg.sender] */\n      dup4\n      mstore\n      swap2\n      keccak256\n      sload\n        /* \"BEP20wALEO.sol\":1582:1612  _access[msg.sender]>_access[a] */\n      gt\n        /* \"BEP20wALEO.sol\":1545:1612  a==msg.sender||_allowances[a][b]>=c||_access[msg.sender]>_access[a] */\n    tag_68:\n        /* \"BEP20wALEO.sol\":1537:1613  require(a==msg.sender||_allowances[a][b]>=c||_access[msg.sender]>_access[a]) */\n      tag_69\n      jumpi\n      0x00\n      dup1\n      revert\n    tag_69:\n      sub(shl(0xa0, 0x01), 0x01)\n        /* \"BEP20wALEO.sol\":1626:1640  _allowances[a] */\n      dup1\n      dup6\n      and\n        /* \"BEP20wALEO.sol\":1626:1637  _allowances */\n      0x00\n        /* \"BEP20wALEO.sol\":1626:1640  _allowances[a] */\n      swap1\n      dup2\n      mstore\n      0x20\n      dup2\n      dup2\n      mstore\n      0x40\n      dup1\n      dup4\n      keccak256\n        /* \"BEP20wALEO.sol\":1626:1643  _allowances[a][b] */\n      swap4\n      dup8\n      and\n      dup4\n      mstore\n      swap3\n      swap1\n      mstore\n      keccak256\n      sload\n        /* \"BEP20wALEO.sol\":1626:1646  _allowances[a][b]>=c */\n      dup3\n      gt\n        /* \"BEP20wALEO.sol\":1623:1667  if(_allowances[a][b]>=c)_allowances[a][b]-=c */\n      tag_70\n      jumpi\n      sub(shl(0xa0, 0x01), 0x01)\n        /* \"BEP20wALEO.sol\":1647:1661  _allowances[a] */\n      dup1\n      dup6\n      and\n        /* \"BEP20wALEO.sol\":1647:1658  _allowances */\n      0x00\n        /* \"BEP20wALEO.sol\":1647:1661  _allowances[a] */\n      swap1\n      dup2\n      mstore\n      0x20\n      dup2\n      dup2\n      mstore\n      0x40\n      dup1\n      dup4\n      keccak256\n        /* \"BEP20wALEO.sol\":1647:1664  _allowances[a][b] */\n      swap4\n      dup8\n      and\n      dup4\n      mstore\n      swap3\n      swap1\n      mstore\n      keccak256\n        /* \"BEP20wALEO.sol\":1647:1667  _allowances[a][b]-=c */\n      dup1\n      sload\n      dup4\n      swap1\n      sub\n      swap1\n      sstore\n        /* \"BEP20wALEO.sol\":1623:1667  if(_allowances[a][b]>=c)_allowances[a][b]-=c */\n    tag_70:\n      sub(shl(0xa0, 0x01), 0x01)\n        /* \"BEP20wALEO.sol\":1678:1690  _balances[a] */\n      dup1\n      dup6\n      and\n      0x00\n      dup2\n      dup2\n      mstore\n        /* \"BEP20wALEO.sol\":1678:1687  _balances */\n      0x01\n        /* \"BEP20wALEO.sol\":1678:1690  _balances[a] */\n      0x20\n      mstore\n      0x40\n      dup1\n      dup3\n      keccak256\n        /* \"BEP20wALEO.sol\":1678:1693  _balances[a]-=c */\n      dup1\n      sload\n      dup8\n      swap1\n      sub\n      swap1\n      sstore\n        /* \"BEP20wALEO.sol\":1694:1706  _balances[b] */\n      swap3\n      dup7\n      and\n      dup1\n      dup3\n      mstore\n      swap1\n      dup4\n      swap1\n      keccak256\n        /* \"BEP20wALEO.sol\":1694:1709  _balances[b]+=c */\n      dup1\n      sload\n      dup7\n      add\n      swap1\n      sstore\n        /* \"BEP20wALEO.sol\":1725:1740  Transfer(a,b,c) */\n      swap2\n      mload\n      0xddf252ad1be2c89b69c2b068fc378daa952ba7f163c4a11628f55a4df523b3ef\n      swap1\n      tag_71\n      swap1\n        /* \"BEP20wALEO.sol\":1692:1693  c */\n      dup7\n        /* \"#utility.yul\":2180:2205   */\n      dup2\n      mstore\n        /* \"#utility.yul\":2168:2170   */\n      0x20\n        /* \"#utility.yul\":2153:2171   */\n      add\n      swap1\n        /* \"#utility.yul\":2034:2211   */\n      jump\n        /* \"BEP20wALEO.sol\":1725:1740  Transfer(a,b,c) */\n    tag_71:\n      mload(0x40)\n      dup1\n      swap2\n      sub\n      swap1\n      log3\n      pop\n        /* \"BEP20wALEO.sol\":1757:1761  true */\n      0x01\n        /* \"BEP20wALEO.sol\":1414:1769  function transferFrom(address a,address b,uint c)public returns(bool){unchecked{... */\n      swap4\n      swap3\n      pop\n      pop\n      pop\n      jump\t// out\n        /* \"BEP20wALEO.sol\":1774:1933  function setAccess(address a,uint u)external{unchecked{... */\n    tag_44:\n      sub(shl(0xa0, 0x01), 0x01)\n        /* \"BEP20wALEO.sol\":1866:1876  _access[a] */\n      dup3\n      and\n      0x00\n      swap1\n      dup2\n      mstore\n        /* \"BEP20wALEO.sol\":1866:1873  _access */\n      0x02\n        /* \"BEP20wALEO.sol\":1866:1876  _access[a] */\n      0x20\n      mstore\n      0x40\n      dup1\n      dup3\n      keccak256\n      sload\n        /* \"BEP20wALEO.sol\":1854:1864  msg.sender */\n      caller\n        /* \"BEP20wALEO.sol\":1846:1865  _access[msg.sender] */\n      dup4\n      mstore\n      swap2\n      keccak256\n      sload\n        /* \"BEP20wALEO.sol\":1846:1876  _access[msg.sender]>_access[a] */\n      gt\n        /* \"BEP20wALEO.sol\":1838:1877  require(_access[msg.sender]>_access[a]) */\n      tag_75\n      jumpi\n      0x00\n      dup1\n      revert\n    tag_75:\n        /* \"BEP20wALEO.sol\":1900:1901  0 */\n      0x00\n        /* \"BEP20wALEO.sol\":1898:1899  u */\n      dup2\n        /* \"BEP20wALEO.sol\":1898:1901  u>0 */\n      gt\n        /* \"BEP20wALEO.sol\":1898:1925  u>0?_access[msg.sender]-1:0 */\n      tag_76\n      jumpi\n        /* \"BEP20wALEO.sol\":1924:1925  0 */\n      0x00\n        /* \"BEP20wALEO.sol\":1898:1925  u>0?_access[msg.sender]-1:0 */\n      jump(tag_77)\n    tag_76:\n        /* \"BEP20wALEO.sol\":1910:1920  msg.sender */\n      caller\n        /* \"BEP20wALEO.sol\":1902:1921  _access[msg.sender] */\n      0x00\n      swap1\n      dup2\n      mstore\n        /* \"BEP20wALEO.sol\":1902:1909  _access */\n      0x02\n        /* \"BEP20wALEO.sol\":1902:1921  _access[msg.sender] */\n      0x20\n      mstore\n      0x40\n      swap1\n      keccak256\n      sload\n      not(0x00)\n        /* \"BEP20wALEO.sol\":1902:1923  _access[msg.sender]-1 */\n      add\n        /* \"BEP20wALEO.sol\":1898:1925  u>0?_access[msg.sender]-1:0 */\n    tag_77:\n      sub(shl(0xa0, 0x01), 0x01)\n        /* \"BEP20wALEO.sol\":1887:1897  _access[a] */\n      swap1\n      swap3\n      and\n      0x00\n      swap1\n      dup2\n      mstore\n        /* \"BEP20wALEO.sol\":1887:1894  _access */\n      0x02\n        /* \"BEP20wALEO.sol\":1887:1897  _access[a] */\n      0x20\n      mstore\n      0x40\n      swap1\n      keccak256\n        /* \"BEP20wALEO.sol\":1887:1925  _access[a]=u>0?_access[msg.sender]-1:0 */\n      swap2\n      swap1\n      swap2\n      sstore\n      pop\n        /* \"BEP20wALEO.sol\":1774:1933  function setAccess(address a,uint u)external{unchecked{... */\n      jump\t// out\n        /* \"BEP20wALEO.sol\":1022:1131  function transfer(address a,uint b)external returns(bool){... */\n    tag_50:\n        /* \"BEP20wALEO.sol\":1074:1078  bool */\n      0x00\n        /* \"BEP20wALEO.sol\":1096:1124  transferFrom(msg.sender,a,b) */\n      tag_80\n        /* \"BEP20wALEO.sol\":1109:1119  msg.sender */\n      caller\n        /* \"BEP20wALEO.sol\":1120:1121  a */\n      dup5\n        /* \"BEP20wALEO.sol\":1122:1123  b */\n      dup5\n        /* \"BEP20wALEO.sol\":1096:1108  transferFrom */\n      tag_32\n        /* \"BEP20wALEO.sol\":1096:1124  transferFrom(msg.sender,a,b) */\n      jump\t// in\n    tag_80:\n        /* \"BEP20wALEO.sol\":1089:1124  return transferFrom(msg.sender,a,b) */\n      swap4\n        /* \"BEP20wALEO.sol\":1022:1131  function transfer(address a,uint b)external returns(bool){... */\n      swap3\n      pop\n      pop\n      pop\n      jump\t// out\n        /* \"#utility.yul\":14:187   */\n    tag_83:\n        /* \"#utility.yul\":82:102   */\n      dup1\n      calldataload\n      sub(shl(0xa0, 0x01), 0x01)\n        /* \"#utility.yul\":131:162   */\n      dup2\n      and\n        /* \"#utility.yul\":121:163   */\n      dup2\n      eq\n        /* \"#utility.yul\":111:181   */\n      tag_85\n      jumpi\n        /* \"#utility.yul\":177:178   */\n      0x00\n        /* \"#utility.yul\":174:175   */\n      dup1\n        /* \"#utility.yul\":167:179   */\n      revert\n        /* \"#utility.yul\":111:181   */\n    tag_85:\n        /* \"#utility.yul\":14:187   */\n      swap2\n      swap1\n      pop\n      jump\t// out\n        /* \"#utility.yul\":192:378   */\n    tag_39:\n        /* \"#utility.yul\":251:257   */\n      0x00\n        /* \"#utility.yul\":304:306   */\n      0x20\n        /* \"#utility.yul\":292:301   */\n      dup3\n        /* \"#utility.yul\":283:290   */\n      dup5\n        /* \"#utility.yul\":279:302   */\n      sub\n        /* \"#utility.yul\":275:307   */\n      slt\n        /* \"#utility.yul\":272:324   */\n      iszero\n      tag_87\n      jumpi\n        /* \"#utility.yul\":320:321   */\n      0x00\n        /* \"#utility.yul\":317:318   */\n      dup1\n        /* \"#utility.yul\":310:322   */\n      revert\n        /* \"#utility.yul\":272:324   */\n    tag_87:\n        /* \"#utility.yul\":343:372   */\n      tag_80\n        /* \"#utility.yul\":362:371   */\n      dup3\n        /* \"#utility.yul\":343:372   */\n      tag_83\n      jump\t// in\n        /* \"#utility.yul\":383:643   */\n    tag_54:\n        /* \"#utility.yul\":451:457   */\n      0x00\n        /* \"#utility.yul\":459:465   */\n      dup1\n        /* \"#utility.yul\":512:514   */\n      0x40\n        /* \"#utility.yul\":500:509   */\n      dup4\n        /* \"#utility.yul\":491:498   */\n      dup6\n        /* \"#utility.yul\":487:510   */\n      sub\n        /* \"#utility.yul\":483:515   */\n      slt\n        /* \"#utility.yul\":480:532   */\n      iszero\n      tag_90\n      jumpi\n        /* \"#utility.yul\":528:529   */\n      0x00\n        /* \"#utility.yul\":525:526   */\n      dup1\n        /* \"#utility.yul\":518:530   */\n      revert\n        /* \"#utility.yul\":480:532   */\n    tag_90:\n        /* \"#utility.yul\":551:580   */\n      tag_91\n        /* \"#utility.yul\":570:579   */\n      dup4\n        /* \"#utility.yul\":551:580   */\n      tag_83\n      jump\t// in\n    tag_91:\n        /* \"#utility.yul\":541:580   */\n      swap2\n      pop\n        /* \"#utility.yul\":599:637   */\n      tag_92\n        /* \"#utility.yul\":633:635   */\n      0x20\n        /* \"#utility.yul\":622:631   */\n      dup5\n        /* \"#utility.yul\":618:636   */\n      add\n        /* \"#utility.yul\":599:637   */\n      tag_83\n      jump\t// in\n    tag_92:\n        /* \"#utility.yul\":589:637   */\n      swap1\n      pop\n        /* \"#utility.yul\":383:643   */\n      swap3\n      pop\n      swap3\n      swap1\n      pop\n      jump\t// out\n        /* \"#utility.yul\":648:976   */\n    tag_31:\n        /* \"#utility.yul\":725:731   */\n      0x00\n        /* \"#utility.yul\":733:739   */\n      dup1\n        /* \"#utility.yul\":741:747   */\n      0x00\n        /* \"#utility.yul\":794:796   */\n      0x60\n        /* \"#utility.yul\":782:791   */\n      dup5\n        /* \"#utility.yul\":773:780   */\n      dup7\n        /* \"#utility.yul\":769:792   */\n      sub\n        /* \"#utility.yul\":765:797   */\n      slt\n        /* \"#utility.yul\":762:814   */\n      iszero\n      tag_94\n      jumpi\n        /* \"#utility.yul\":810:811   */\n      0x00\n        /* \"#utility.yul\":807:808   */\n      dup1\n        /* \"#utility.yul\":800:812   */\n      revert\n        /* \"#utility.yul\":762:814   */\n    tag_94:\n        /* \"#utility.yul\":833:862   */\n      tag_95\n        /* \"#utility.yul\":852:861   */\n      dup5\n        /* \"#utility.yul\":833:862   */\n      tag_83\n      jump\t// in\n    tag_95:\n        /* \"#utility.yul\":823:862   */\n      swap3\n      pop\n        /* \"#utility.yul\":881:919   */\n      tag_96\n        /* \"#utility.yul\":915:917   */\n      0x20\n        /* \"#utility.yul\":904:913   */\n      dup6\n        /* \"#utility.yul\":900:918   */\n      add\n        /* \"#utility.yul\":881:919   */\n      tag_83\n      jump\t// in\n    tag_96:\n        /* \"#utility.yul\":871:919   */\n      swap2\n      pop\n        /* \"#utility.yul\":966:968   */\n      0x40\n        /* \"#utility.yul\":955:964   */\n      dup5\n        /* \"#utility.yul\":951:969   */\n      add\n        /* \"#utility.yul\":938:970   */\n      calldataload\n        /* \"#utility.yul\":928:970   */\n      swap1\n      pop\n        /* \"#utility.yul\":648:976   */\n      swap3\n      pop\n      swap3\n      pop\n      swap3\n      jump\t// out\n        /* \"#utility.yul\":981:1235   */\n    tag_21:\n        /* \"#utility.yul\":1049:1055   */\n      0x00\n        /* \"#utility.yul\":1057:1063   */\n      dup1\n        /* \"#utility.yul\":1110:1112   */\n      0x40\n        /* \"#utility.yul\":1098:1107   */\n      dup4\n        /* \"#utility.yul\":1089:1096   */\n      dup6\n        /* \"#utility.yul\":1085:1108   */\n      sub\n        /* \"#utility.yul\":1081:1113   */\n      slt\n        /* \"#utility.yul\":1078:1130   */\n      iszero\n      tag_98\n      jumpi\n        /* \"#utility.yul\":1126:1127   */\n      0x00\n        /* \"#utility.yul\":1123:1124   */\n      dup1\n        /* \"#utility.yul\":1116:1128   */\n      revert\n        /* \"#utility.yul\":1078:1130   */\n    tag_98:\n        /* \"#utility.yul\":1149:1178   */\n      tag_99\n        /* \"#utility.yul\":1168:1177   */\n      dup4\n        /* \"#utility.yul\":1149:1178   */\n      tag_83\n      jump\t// in\n    tag_99:\n        /* \"#utility.yul\":1139:1178   */\n      swap5\n        /* \"#utility.yul\":1225:1227   */\n      0x20\n        /* \"#utility.yul\":1210:1228   */\n      swap4\n      swap1\n      swap4\n      add\n        /* \"#utility.yul\":1197:1229   */\n      calldataload\n      swap4\n      pop\n      pop\n      pop\n        /* \"#utility.yul\":981:1235   */\n      jump\t// out\n        /* \"#utility.yul\":1432:2029   */\n    tag_18:\n        /* \"#utility.yul\":1544:1548   */\n      0x00\n        /* \"#utility.yul\":1573:1575   */\n      0x20\n        /* \"#utility.yul\":1602:1604   */\n      dup1\n        /* \"#utility.yul\":1591:1600   */\n      dup4\n        /* \"#utility.yul\":1584:1605   */\n      mstore\n        /* \"#utility.yul\":1634:1640   */\n      dup4\n        /* \"#utility.yul\":1628:1641   */\n      mload\n        /* \"#utility.yul\":1677:1683   */\n      dup1\n        /* \"#utility.yul\":1672:1674   */\n      dup3\n        /* \"#utility.yul\":1661:1670   */\n      dup6\n        /* \"#utility.yul\":1657:1675   */\n      add\n        /* \"#utility.yul\":1650:1684   */\n      mstore\n        /* \"#utility.yul\":1702:1703   */\n      0x00\n        /* \"#utility.yul\":1712:1852   */\n    tag_102:\n        /* \"#utility.yul\":1726:1732   */\n      dup2\n        /* \"#utility.yul\":1723:1724   */\n      dup2\n        /* \"#utility.yul\":1720:1733   */\n      lt\n        /* \"#utility.yul\":1712:1852   */\n      iszero\n      tag_104\n      jumpi\n        /* \"#utility.yul\":1821:1835   */\n      dup6\n      dup2\n      add\n        /* \"#utility.yul\":1817:1840   */\n      dup4\n      add\n        /* \"#utility.yul\":1811:1841   */\n      mload\n        /* \"#utility.yul\":1787:1804   */\n      dup6\n      dup3\n      add\n        /* \"#utility.yul\":1806:1808   */\n      0x40\n        /* \"#utility.yul\":1783:1809   */\n      add\n        /* \"#utility.yul\":1776:1842   */\n      mstore\n        /* \"#utility.yul\":1741:1751   */\n      dup3\n      add\n        /* \"#utility.yul\":1712:1852   */\n      jump(tag_102)\n    tag_104:\n        /* \"#utility.yul\":1870:1876   */\n      dup2\n        /* \"#utility.yul\":1867:1868   */\n      dup2\n        /* \"#utility.yul\":1864:1877   */\n      gt\n        /* \"#utility.yul\":1861:1952   */\n      iszero\n      tag_105\n      jumpi\n        /* \"#utility.yul\":1940:1941   */\n      0x00\n        /* \"#utility.yul\":1935:1937   */\n      0x40\n        /* \"#utility.yul\":1926:1932   */\n      dup4\n        /* \"#utility.yul\":1915:1924   */\n      dup8\n        /* \"#utility.yul\":1911:1933   */\n      add\n        /* \"#utility.yul\":1907:1938   */\n      add\n        /* \"#utility.yul\":1900:1942   */\n      mstore\n        /* \"#utility.yul\":1861:1952   */\n    tag_105:\n      pop\n        /* \"#utility.yul\":2013:2015   */\n      0x1f\n        /* \"#utility.yul\":1992:2007   */\n      add\n      not(0x1f)\n        /* \"#utility.yul\":1988:2017   */\n      and\n        /* \"#utility.yul\":1973:2018   */\n      swap3\n      swap1\n      swap3\n      add\n        /* \"#utility.yul\":2020:2022   */\n      0x40\n        /* \"#utility.yul\":1969:2023   */\n      add\n      swap4\n        /* \"#utility.yul\":1432:2029   */\n      swap3\n      pop\n      pop\n      pop\n      jump\t// out\n\n    auxdata: 0xa264697066735822122084b4728626f129f90fe1a4798206199d71bcc4e4bac938819f8d509221676aaf64736f6c63430008070033\n}\n",
				"bytecode": {
					"linkReferences": {},
					"object": "608060405234801561001057600080fd5b506af8277896582678ac0000006003818155336000908152600260209081526040808320308085526001845282852096909655606390559254925192835290917fddf252ad1be2c89b69c2b068fc378daa952ba7f163c4a11628f55a4df523b3ef910160405180910390a36105a08061008a6000396000f3fe608060405234801561001057600080fd5b50600436106100a95760003560e01c806370a082311161007157806370a0823114610137578063850bbe871461016057806395d89b4114610175578063a9059cbb14610196578063dd62ed3e146101a9578063e0313443146101e057600080fd5b806306fdde03146100ae578063095ea7b3146100e857806318160ddd1461010b57806323b872dd1461011d578063313ce56714610130575b600080fd5b60408051808201909152600c81526b7772617070656420414c454f60a01b60208201525b6040516100df9190610515565b60405180910390f35b6100fb6100f63660046104eb565b610200565b60405190151581526020016100df565b6003545b6040519081526020016100df565b6100fb61012b3660046104af565b61026a565b601261010f565b61010f610145366004610461565b6001600160a01b031660009081526001602052604090205490565b61017361016e3660046104eb565b6103c3565b005b60408051808201909152600581526477414c454f60d81b60208201526100d2565b6100fb6101a43660046104eb565b610431565b61010f6101b736600461047c565b6001600160a01b0391821660009081526020818152604080832093909416825291909152205490565b61010f6101ee366004610461565b60026020526000908152604090205481565b336000818152602081815260408083206001600160a01b038716808552925280832085905551919290917f8c5be1e5ebec7d5bd14f71427d1e84f3dd0314c0f7b2291e5b200ac8c7c3b925906102599086815260200190565b60405180910390a350600192915050565b6001600160a01b03831660009081526001602052604081205482111561028f57600080fd5b6001600160a01b0384163314806102c957506001600160a01b03808516600090815260208181526040808320938716835292905220548211155b806102f157506001600160a01b03841660009081526002602052604080822054338352912054115b6102fa57600080fd5b6001600160a01b0380851660009081526020818152604080832093871683529290522054821161034f576001600160a01b03808516600090815260208181526040808320938716835292905220805483900390555b6001600160a01b03808516600081815260016020526040808220805487900390559286168082529083902080548601905591517fddf252ad1be2c89b69c2b068fc378daa952ba7f163c4a11628f55a4df523b3ef906103b19086815260200190565b60405180910390a35060019392505050565b6001600160a01b03821660009081526002602052604080822054338352912054116103ed57600080fd5b600081116103fc576000610411565b33600090815260026020526040902054600019015b6001600160a01b0390921660009081526002602052604090209190915550565b600061043e33848461026a565b9392505050565b80356001600160a01b038116811461045c57600080fd5b919050565b60006020828403121561047357600080fd5b61043e82610445565b6000806040838503121561048f57600080fd5b61049883610445565b91506104a660208401610445565b90509250929050565b6000806000606084860312156104c457600080fd5b6104cd84610445565b92506104db60208501610445565b9150604084013590509250925092565b600080604083850312156104fe57600080fd5b61050783610445565b946020939093013593505050565b600060208083528351808285015260005b8181101561054257858101830151858201604001528201610526565b81811115610554576000604083870101525b50601f01601f191692909201604001939250505056fea264697066735822122084b4728626f129f90fe1a4798206199d71bcc4e4bac938819f8d509221676aaf64736f6c63430008070033",
					"opcodes": "PUSH1 0x80 PUSH1 0x40 MSTORE CALLVALUE DUP1 ISZERO PUSH2 0x10 JUMPI PUSH1 0x0 DUP1 REVERT JUMPDEST POP PUSH11 0xF8277896582678AC000000 PUSH1 0x3 DUP2 DUP2 SSTORE CALLER PUSH1 0x0 SWAP1 DUP2 MSTORE PUSH1 0x2 PUSH1 0x20 SWAP1 DUP2 MSTORE PUSH1 0x40 DUP1 DUP4 KECCAK256 ADDRESS DUP1 DUP6 MSTORE PUSH1 0x1 DUP5 MSTORE DUP3 DUP6 KECCAK256 SWAP7 SWAP1 SWAP7 SSTORE PUSH1 0x63 SWAP1 SSTORE SWAP3 SLOAD SWAP3 MLOAD SWAP3 DUP4 MSTORE SWAP1 SWAP2 PUSH32 0xDDF252AD1BE2C89B69C2B068FC378DAA952BA7F163C4A11628F55A4DF523B3EF SWAP2 ADD PUSH1 0x40 MLOAD DUP1 SWAP2 SUB SWAP1 LOG3 PUSH2 0x5A0 DUP1 PUSH2 0x8A PUSH1 0x0 CODECOPY PUSH1 0x0 RETURN INVALID PUSH1 0x80 PUSH1 0x40 MSTORE CALLVALUE DUP1 ISZERO PUSH2 0x10 JUMPI PUSH1 0x0 DUP1 REVERT JUMPDEST POP PUSH1 0x4 CALLDATASIZE LT PUSH2 0xA9 JUMPI PUSH1 0x0 CALLDATALOAD PUSH1 0xE0 SHR DUP1 PUSH4 0x70A08231 GT PUSH2 0x71 JUMPI DUP1 PUSH4 0x70A08231 EQ PUSH2 0x137 JUMPI DUP1 PUSH4 0x850BBE87 EQ PUSH2 0x160 JUMPI DUP1 PUSH4 0x95D89B41 EQ PUSH2 0x175 JUMPI DUP1 PUSH4 0xA9059CBB EQ PUSH2 0x196 JUMPI DUP1 PUSH4 0xDD62ED3E EQ PUSH2 0x1A9 JUMPI DUP1 PUSH4 0xE0313443 EQ PUSH2 0x1E0 JUMPI PUSH1 0x0 DUP1 REVERT JUMPDEST DUP1 PUSH4 0x6FDDE03 EQ PUSH2 0xAE JUMPI DUP1 PUSH4 0x95EA7B3 EQ PUSH2 0xE8 JUMPI DUP1 PUSH4 0x18160DDD EQ PUSH2 0x10B JUMPI DUP1 PUSH4 0x23B872DD EQ PUSH2 0x11D JUMPI DUP1 PUSH4 0x313CE567 EQ PUSH2 0x130 JUMPI JUMPDEST PUSH1 0x0 DUP1 REVERT JUMPDEST PUSH1 0x40 DUP1 MLOAD DUP1 DUP3 ADD SWAP1 SWAP2 MSTORE PUSH1 0xC DUP2 MSTORE PUSH12 0x7772617070656420414C454F PUSH1 0xA0 SHL PUSH1 0x20 DUP3 ADD MSTORE JUMPDEST PUSH1 0x40 MLOAD PUSH2 0xDF SWAP2 SWAP1 PUSH2 0x515 JUMP JUMPDEST PUSH1 0x40 MLOAD DUP1 SWAP2 SUB SWAP1 RETURN JUMPDEST PUSH2 0xFB PUSH2 0xF6 CALLDATASIZE PUSH1 0x4 PUSH2 0x4EB JUMP JUMPDEST PUSH2 0x200 JUMP JUMPDEST PUSH1 0x40 MLOAD SWAP1 ISZERO ISZERO DUP2 MSTORE PUSH1 0x20 ADD PUSH2 0xDF JUMP JUMPDEST PUSH1 0x3 SLOAD JUMPDEST PUSH1 0x40 MLOAD SWAP1 DUP2 MSTORE PUSH1 0x20 ADD PUSH2 0xDF JUMP JUMPDEST PUSH2 0xFB PUSH2 0x12B CALLDATASIZE PUSH1 0x4 PUSH2 0x4AF JUMP JUMPDEST PUSH2 0x26A JUMP JUMPDEST PUSH1 0x12 PUSH2 0x10F JUMP JUMPDEST PUSH2 0x10F PUSH2 0x145 CALLDATASIZE PUSH1 0x4 PUSH2 0x461 JUMP JUMPDEST PUSH1 0x1 PUSH1 0x1 PUSH1 0xA0 SHL SUB AND PUSH1 0x0 SWAP1 DUP2 MSTORE PUSH1 0x1 PUSH1 0x20 MSTORE PUSH1 0x40 SWAP1 KECCAK256 SLOAD SWAP1 JUMP JUMPDEST PUSH2 0x173 PUSH2 0x16E CALLDATASIZE PUSH1 0x4 PUSH2 0x4EB JUMP JUMPDEST PUSH2 0x3C3 JUMP JUMPDEST STOP JUMPDEST PUSH1 0x40 DUP1 MLOAD DUP1 DUP3 ADD SWAP1 SWAP2 MSTORE PUSH1 0x5 DUP2 MSTORE PUSH5 0x77414C454F PUSH1 0xD8 SHL PUSH1 0x20 DUP3 ADD MSTORE PUSH2 0xD2 JUMP JUMPDEST PUSH2 0xFB PUSH2 0x1A4 CALLDATASIZE PUSH1 0x4 PUSH2 0x4EB JUMP JUMPDEST PUSH2 0x431 JUMP JUMPDEST PUSH2 0x10F PUSH2 0x1B7 CALLDATASIZE PUSH1 0x4 PUSH2 0x47C JUMP JUMPDEST PUSH1 0x1 PUSH1 0x1 PUSH1 0xA0 SHL SUB SWAP2 DUP3 AND PUSH1 0x0 SWAP1 DUP2 MSTORE PUSH1 0x20 DUP2 DUP2 MSTORE PUSH1 0x40 DUP1 DUP4 KECCAK256 SWAP4 SWAP1 SWAP5 AND DUP3 MSTORE SWAP2 SWAP1 SWAP2 MSTORE KECCAK256 SLOAD SWAP1 JUMP JUMPDEST PUSH2 0x10F PUSH2 0x1EE CALLDATASIZE PUSH1 0x4 PUSH2 0x461 JUMP JUMPDEST PUSH1 0x2 PUSH1 0x20 MSTORE PUSH1 0x0 SWAP1 DUP2 MSTORE PUSH1 0x40 SWAP1 KECCAK256 SLOAD DUP2 JUMP JUMPDEST CALLER PUSH1 0x0 DUP2 DUP2 MSTORE PUSH1 0x20 DUP2 DUP2 MSTORE PUSH1 0x40 DUP1 DUP4 KECCAK256 PUSH1 0x1 PUSH1 0x1 PUSH1 0xA0 SHL SUB DUP8 AND DUP1 DUP6 MSTORE SWAP3 MSTORE DUP1 DUP4 KECCAK256 DUP6 SWAP1 SSTORE MLOAD SWAP2 SWAP3 SWAP1 SWAP2 PUSH32 0x8C5BE1E5EBEC7D5BD14F71427D1E84F3DD0314C0F7B2291E5B200AC8C7C3B925 SWAP1 PUSH2 0x259 SWAP1 DUP7 DUP2 MSTORE PUSH1 0x20 ADD SWAP1 JUMP JUMPDEST PUSH1 0x40 MLOAD DUP1 SWAP2 SUB SWAP1 LOG3 POP PUSH1 0x1 SWAP3 SWAP2 POP POP JUMP JUMPDEST PUSH1 0x1 PUSH1 0x1 PUSH1 0xA0 SHL SUB DUP4 AND PUSH1 0x0 SWAP1 DUP2 MSTORE PUSH1 0x1 PUSH1 0x20 MSTORE PUSH1 0x40 DUP2 KECCAK256 SLOAD DUP3 GT ISZERO PUSH2 0x28F JUMPI PUSH1 0x0 DUP1 REVERT JUMPDEST PUSH1 0x1 PUSH1 0x1 PUSH1 0xA0 SHL SUB DUP5 AND CALLER EQ DUP1 PUSH2 0x2C9 JUMPI POP PUSH1 0x1 PUSH1 0x1 PUSH1 0xA0 SHL SUB DUP1 DUP6 AND PUSH1 0x0 SWAP1 DUP2 MSTORE PUSH1 0x20 DUP2 DUP2 MSTORE PUSH1 0x40 DUP1 DUP4 KECCAK256 SWAP4 DUP8 AND DUP4 MSTORE SWAP3 SWAP1 MSTORE KECCAK256 SLOAD DUP3 GT ISZERO JUMPDEST DUP1 PUSH2 0x2F1 JUMPI POP PUSH1 0x1 PUSH1 0x1 PUSH1 0xA0 SHL SUB DUP5 AND PUSH1 0x0 SWAP1 DUP2 MSTORE PUSH1 0x2 PUSH1 0x20 MSTORE PUSH1 0x40 DUP1 DUP3 KECCAK256 SLOAD CALLER DUP4 MSTORE SWAP2 KECCAK256 SLOAD GT JUMPDEST PUSH2 0x2FA JUMPI PUSH1 0x0 DUP1 REVERT JUMPDEST PUSH1 0x1 PUSH1 0x1 PUSH1 0xA0 SHL SUB DUP1 DUP6 AND PUSH1 0x0 SWAP1 DUP2 MSTORE PUSH1 0x20 DUP2 DUP2 MSTORE PUSH1 0x40 DUP1 DUP4 KECCAK256 SWAP4 DUP8 AND DUP4 MSTORE SWAP3 SWAP1 MSTORE KECCAK256 SLOAD DUP3 GT PUSH2 0x34F JUMPI PUSH1 0x1 PUSH1 0x1 PUSH1 0xA0 SHL SUB DUP1 DUP6 AND PUSH1 0x0 SWAP1 DUP2 MSTORE PUSH1 0x20 DUP2 DUP2 MSTORE PUSH1 0x40 DUP1 DUP4 KECCAK256 SWAP4 DUP8 AND DUP4 MSTORE SWAP3 SWAP1 MSTORE KECCAK256 DUP1 SLOAD DUP4 SWAP1 SUB SWAP1 SSTORE JUMPDEST PUSH1 0x1 PUSH1 0x1 PUSH1 0xA0 SHL SUB DUP1 DUP6 AND PUSH1 0x0 DUP2 DUP2 MSTORE PUSH1 0x1 PUSH1 0x20 MSTORE PUSH1 0x40 DUP1 DUP3 KECCAK256 DUP1 SLOAD DUP8 SWAP1 SUB SWAP1 SSTORE SWAP3 DUP7 AND DUP1 DUP3 MSTORE SWAP1 DUP4 SWAP1 KECCAK256 DUP1 SLOAD DUP7 ADD SWAP1 SSTORE SWAP2 MLOAD PUSH32 0xDDF252AD1BE2C89B69C2B068FC378DAA952BA7F163C4A11628F55A4DF523B3EF SWAP1 PUSH2 0x3B1 SWAP1 DUP7 DUP2 MSTORE PUSH1 0x20 ADD SWAP1 JUMP JUMPDEST PUSH1 0x40 MLOAD DUP1 SWAP2 SUB SWAP1 LOG3 POP PUSH1 0x1 SWAP4 SWAP3 POP POP POP JUMP JUMPDEST PUSH1 0x1 PUSH1 0x1 PUSH1 0xA0 SHL SUB DUP3 AND PUSH1 0x0 SWAP1 DUP2 MSTORE PUSH1 0x2 PUSH1 0x20 MSTORE PUSH1 0x40 DUP1 DUP3 KECCAK256 SLOAD CALLER DUP4 MSTORE SWAP2 KECCAK256 SLOAD GT PUSH2 0x3ED JUMPI PUSH1 0x0 DUP1 REVERT JUMPDEST PUSH1 0x0 DUP2 GT PUSH2 0x3FC JUMPI PUSH1 0x0 PUSH2 0x411 JUMP JUMPDEST CALLER PUSH1 0x0 SWAP1 DUP2 MSTORE PUSH1 0x2 PUSH1 0x20 MSTORE PUSH1 0x40 SWAP1 KECCAK256 SLOAD PUSH1 0x0 NOT ADD JUMPDEST PUSH1 0x1 PUSH1 0x1 PUSH1 0xA0 SHL SUB SWAP1 SWAP3 AND PUSH1 0x0 SWAP1 DUP2 MSTORE PUSH1 0x2 PUSH1 0x20 MSTORE PUSH1 0x40 SWAP1 KECCAK256 SWAP2 SWAP1 SWAP2 SSTORE POP JUMP JUMPDEST PUSH1 0x0 PUSH2 0x43E CALLER DUP5 DUP5 PUSH2 0x26A JUMP JUMPDEST SWAP4 SWAP3 POP POP POP JUMP JUMPDEST DUP1 CALLDATALOAD PUSH1 0x1 PUSH1 0x1 PUSH1 0xA0 SHL SUB DUP2 AND DUP2 EQ PUSH2 0x45C JUMPI PUSH1 0x0 DUP1 REVERT JUMPDEST SWAP2 SWAP1 POP JUMP JUMPDEST PUSH1 0x0 PUSH1 0x20 DUP3 DUP5 SUB SLT ISZERO PUSH2 0x473 JUMPI PUSH1 0x0 DUP1 REVERT JUMPDEST PUSH2 0x43E DUP3 PUSH2 0x445 JUMP JUMPDEST PUSH1 0x0 DUP1 PUSH1 0x40 DUP4 DUP6 SUB SLT ISZERO PUSH2 0x48F JUMPI PUSH1 0x0 DUP1 REVERT JUMPDEST PUSH2 0x498 DUP4 PUSH2 0x445 JUMP JUMPDEST SWAP2 POP PUSH2 0x4A6 PUSH1 0x20 DUP5 ADD PUSH2 0x445 JUMP JUMPDEST SWAP1 POP SWAP3 POP SWAP3 SWAP1 POP JUMP JUMPDEST PUSH1 0x0 DUP1 PUSH1 0x0 PUSH1 0x60 DUP5 DUP7 SUB SLT ISZERO PUSH2 0x4C4 JUMPI PUSH1 0x0 DUP1 REVERT JUMPDEST PUSH2 0x4CD DUP5 PUSH2 0x445 JUMP JUMPDEST SWAP3 POP PUSH2 0x4DB PUSH1 0x20 DUP6 ADD PUSH2 0x445 JUMP JUMPDEST SWAP2 POP PUSH1 0x40 DUP5 ADD CALLDATALOAD SWAP1 POP SWAP3 POP SWAP3 POP SWAP3 JUMP JUMPDEST PUSH1 0x0 DUP1 PUSH1 0x40 DUP4 DUP6 SUB SLT ISZERO PUSH2 0x4FE JUMPI PUSH1 0x0 DUP1 REVERT JUMPDEST PUSH2 0x507 DUP4 PUSH2 0x445 JUMP JUMPDEST SWAP5 PUSH1 0x20 SWAP4 SWAP1 SWAP4 ADD CALLDATALOAD SWAP4 POP POP POP JUMP JUMPDEST PUSH1 0x0 PUSH1 0x20 DUP1 DUP4 MSTORE DUP4 MLOAD DUP1 DUP3 DUP6 ADD MSTORE PUSH1 0x0 JUMPDEST DUP2 DUP2 LT ISZERO PUSH2 0x542 JUMPI DUP6 DUP2 ADD DUP4 ADD MLOAD DUP6 DUP3 ADD PUSH1 0x40 ADD MSTORE DUP3 ADD PUSH2 0x526 JUMP JUMPDEST DUP2 DUP2 GT ISZERO PUSH2 0x554 JUMPI PUSH1 0x0 PUSH1 0x40 DUP4 DUP8 ADD ADD MSTORE JUMPDEST POP PUSH1 0x1F ADD PUSH1 0x1F NOT AND SWAP3 SWAP1 SWAP3 ADD PUSH1 0x40 ADD SWAP4 SWAP3 POP POP POP JUMP INVALID LOG2 PUSH5 0x6970667358 0x22 SLT KECCAK256 DUP5 0xB4 PUSH19 0x8626F129F90FE1A4798206199D71BCC4E4BAC9 CODESIZE DUP2 SWAP16 DUP14 POP SWAP3 0x21 PUSH8 0x6AAF64736F6C6343 STOP ADDMOD SMOD STOP CALLER "
				},
				"gasEstimates": {
					"creation": {
						"codeDepositCost": "288000",
						"executionCost": "70706",
						"totalCost": "358706"
					},
					"external": {
						"_access(address)": "2629",
						"allowance(address,address)": "infinite",
						"approve(address,uint256)": "24519",
						"balanceOf(address)": "2537",
						"decimals()": "281",
						"name()": "infinite",
						"setAccess(address,uint256)": "29116",
						"symbol()": "infinite",
						"totalSupply()": "2326",
						"transfer(address,uint256)": "79879",
						"transferFrom(address,address,uint256)": "infinite"
					}
				},
				"methodIdentifiers": {
					"_access(address)": "e0313443",
					"allowance(address,address)": "dd62ed3e",
					"approve(address,uint256)": "095ea7b3",
					"balanceOf(address)": "70a08231",
					"decimals()": "313ce567",
					"name()": "06fdde03",
					"setAccess(address,uint256)": "850bbe87",
					"symbol()": "95d89b41",
					"totalSupply()": "18160ddd",
					"transfer(address,uint256)": "a9059cbb",
					"transferFrom(address,address,uint256)": "23b872dd"
				}
			},
			"storageLayout": {
				"storage": [
					{
						"astId": 23,
						"contract": "BEP20wALEO.sol:BEP20wALEO",
						"label": "_allowances",
						"offset": 0,
						"slot": "0",
						"type": "t_mapping(t_address,t_mapping(t_address,t_uint256))"
					},
					{
						"astId": 27,
						"contract": "BEP20wALEO.sol:BEP20wALEO",
						"label": "_balances",
						"offset": 0,
						"slot": "1",
						"type": "t_mapping(t_address,t_uint256)"
					},
					{
						"astId": 31,
						"contract": "BEP20wALEO.sol:BEP20wALEO",
						"label": "_access",
						"offset": 0,
						"slot": "2",
						"type": "t_mapping(t_address,t_uint256)"
					},
					{
						"astId": 33,
						"contract": "BEP20wALEO.sol:BEP20wALEO",
						"label": "_totalSupply",
						"offset": 0,
						"slot": "3",
						"type": "t_uint256"
					}
				],
				"types": {
					"t_address": {
						"encoding": "inplace",
						"label": "address",
						"numberOfBytes": "20"
					},
					"t_mapping(t_address,t_mapping(t_address,t_uint256))": {
						"encoding": "mapping",
						"key": "t_address",
						"label": "mapping(address => mapping(address => uint256))",
						"numberOfBytes": "32",
						"value": "t_mapping(t_address,t_uint256)"
					},
					"t_mapping(t_address,t_uint256)": {
						"encoding": "mapping",
						"key": "t_address",
						"label": "mapping(address => uint256)",
						"numberOfBytes": "32",
						"value": "t_uint256"
					},
					"t_uint256": {
						"encoding": "inplace",
						"label": "uint256",
						"numberOfBytes": "32"
					}
				}
			},
			"userdoc": {
				"kind": "user",
				"methods": {},
				"version": 1
			}
		}
	}
}